{"abi":[{"type":"constructor","inputs":[],"stateMutability":"nonpayable"},{"type":"function","name":"getPrice","inputs":[{"name":"_influencerId","type":"string","internalType":"string"}],"outputs":[{"name":"","type":"uint256","internalType":"uint256"}],"stateMutability":"view"},{"type":"function","name":"indexPrices","inputs":[{"name":"","type":"string","internalType":"string"}],"outputs":[{"name":"","type":"uint256","internalType":"uint256"}],"stateMutability":"view"},{"type":"function","name":"owner","inputs":[],"outputs":[{"name":"","type":"address","internalType":"address"}],"stateMutability":"view"},{"type":"function","name":"transferOwnership","inputs":[{"name":"_newOwner","type":"address","internalType":"address"}],"outputs":[],"stateMutability":"nonpayable"},{"type":"function","name":"updateIndex","inputs":[{"name":"_influencerId","type":"string","internalType":"string"},{"name":"_newPrice","type":"uint256","internalType":"uint256"}],"outputs":[],"stateMutability":"nonpayable"},{"type":"function","name":"updateMultipleIndices","inputs":[{"name":"_influencerIds","type":"string[]","internalType":"string[]"},{"name":"_newPrices","type":"uint256[]","internalType":"uint256[]"}],"outputs":[],"stateMutability":"nonpayable"},{"type":"event","name":"OwnershipTransferred","inputs":[{"name":"previousOwner","type":"address","indexed":true,"internalType":"address"},{"name":"newOwner","type":"address","indexed":true,"internalType":"address"}],"anonymous":false},{"type":"event","name":"PriceUpdated","inputs":[{"name":"influencerId","type":"string","indexed":true,"internalType":"string"},{"name":"oldPrice","type":"uint256","indexed":false,"internalType":"uint256"},{"name":"newPrice","type":"uint256","indexed":false,"internalType":"uint256"}],"anonymous":false}],"bytecode":{"object":"0x608060405234801561000f575f80fd5b505f80546001600160a01b0319163390811782556040519091907f8be0079c531659141344cd1fd0a4f28419497f9722a3daafe3b4186f6b6457e0908290a36108498061005b5f395ff3fe608060405234801561000f575f80fd5b5060043610610060575f3560e01c806303c55f50146100645780633608a91c14610079578063524f38891461008c57806366ea018b146100b25780638da5cb5b146100dd578063f2fde38b14610107575b5f80fd5b6100776100723660046105f4565b61011a565b005b6100776100873660046106c1565b6102e6565b61009f61009a366004610703565b6103a5565b6040519081526020015b60405180910390f35b61009f6100c0366004610703565b805160208183018101805160018252928201919093012091525481565b5f546100ef906001600160a01b031681565b6040516001600160a01b0390911681526020016100a9565b61007761011536600461073d565b6103cc565b5f546001600160a01b0316331461014c5760405162461bcd60e51b81526004016101439061076a565b60405180910390fd5b80518251146101a95760405162461bcd60e51b8152602060048201526024808201527f58496e6465784f7261636c653a20617272617973206c656e677468206d69736d6044820152630c2e8c6d60e31b6064820152608401610143565b5f5b82518110156102e1575f60018483815181106101c9576101c96107af565b60200260200101516040516101de91906107c3565b9081526020016040518091039020549050828281518110610201576102016107af565b6020026020010151600185848151811061021d5761021d6107af565b602002602001015160405161023291906107c3565b908152602001604051809103902081905550838281518110610256576102566107af565b602002602001015160405161026b91906107c3565b60405180910390207f6e838f2a03741f5f2aff5480963b672fb0dd8430a4dc75db9b67ce009733c9fe828585815181106102a7576102a76107af565b60200260200101516040516102c6929190918252602082015260400190565b60405180910390a250806102d9816107ef565b9150506101ab565b505050565b5f546001600160a01b0316331461030f5760405162461bcd60e51b81526004016101439061076a565b5f60018360405161032091906107c3565b90815260200160405180910390205490508160018460405161034291906107c3565b908152604051908190036020018120919091556103609084906107c3565b6040805191829003822083835260208301859052917f6e838f2a03741f5f2aff5480963b672fb0dd8430a4dc75db9b67ce009733c9fe910160405180910390a2505050565b5f6001826040516103b691906107c3565b9081526020016040518091039020549050919050565b5f546001600160a01b031633146103f55760405162461bcd60e51b81526004016101439061076a565b6001600160a01b03811661045f5760405162461bcd60e51b815260206004820152602b60248201527f58496e6465784f7261636c653a206e6577206f776e657220697320746865207a60448201526a65726f206164647265737360a81b6064820152608401610143565b5f80546040516001600160a01b03808516939216917f8be0079c531659141344cd1fd0a4f28419497f9722a3daafe3b4186f6b6457e091a35f80546001600160a01b0319166001600160a01b0392909216919091179055565b634e487b7160e01b5f52604160045260245ffd5b604051601f8201601f1916810167ffffffffffffffff811182821017156104f5576104f56104b8565b604052919050565b5f67ffffffffffffffff821115610516576105166104b8565b5060051b60200190565b5f82601f83011261052f575f80fd5b813567ffffffffffffffff811115610549576105496104b8565b61055c601f8201601f19166020016104cc565b818152846020838601011115610570575f80fd5b816020850160208301375f918101602001919091529392505050565b5f82601f83011261059b575f80fd5b813560206105b06105ab836104fd565b6104cc565b82815260059290921b840181019181810190868411156105ce575f80fd5b8286015b848110156105e957803583529183019183016105d2565b509695505050505050565b5f8060408385031215610605575f80fd5b823567ffffffffffffffff8082111561061c575f80fd5b818501915085601f83011261062f575f80fd5b8135602061063f6105ab836104fd565b82815260059290921b8401810191818101908984111561065d575f80fd5b8286015b8481101561069457803586811115610678575f8081fd5b6106868c86838b0101610520565b845250918301918301610661565b50965050860135925050808211156106aa575f80fd5b506106b78582860161058c565b9150509250929050565b5f80604083850312156106d2575f80fd5b823567ffffffffffffffff8111156106e8575f80fd5b6106f485828601610520565b95602094909401359450505050565b5f60208284031215610713575f80fd5b813567ffffffffffffffff811115610729575f80fd5b61073584828501610520565b949350505050565b5f6020828403121561074d575f80fd5b81356001600160a01b0381168114610763575f80fd5b9392505050565b60208082526025908201527f58496e6465784f7261636c653a2063616c6c6572206973206e6f74207468652060408201526437bbb732b960d91b606082015260800190565b634e487b7160e01b5f52603260045260245ffd5b5f82515f5b818110156107e257602081860181015185830152016107c8565b505f920191825250919050565b5f6001820161080c57634e487b7160e01b5f52601160045260245ffd5b506001019056fea264697066735822122062ffdfaf77f646fe4a2bc73112b3d4221c4744cb3fcaa044b779ec3acfbbd3f564736f6c63430008140033","linkReferences":{}},"methodIdentifiers":{"getPrice(string)":"524f3889","indexPrices(string)":"66ea018b","owner()":"8da5cb5b","transferOwnership(address)":"f2fde38b","updateIndex(string,uint256)":"3608a91c","updateMultipleIndices(string[],uint256[])":"03c55f50"},"id":17}