{"abi":[{"type":"constructor","inputs":[{"name":"_oracleAddress","type":"address","internalType":"address"},{"name":"_owner","type":"address","internalType":"address"}],"stateMutability":"nonpayable"},{"type":"receive","stateMutability":"payable"},{"type":"function","name":"BASIS_POINTS","inputs":[],"outputs":[{"name":"","type":"uint256","internalType":"uint256"}],"stateMutability":"view"},{"type":"function","name":"FUNDING_INTERVAL","inputs":[],"outputs":[{"name":"","type":"uint256","internalType":"uint256"}],"stateMutability":"view"},{"type":"function","name":"FUNDING_RATE_BPS","inputs":[],"outputs":[{"name":"","type":"uint256","internalType":"uint256"}],"stateMutability":"view"},{"type":"function","name":"INFLUENCER_FEE_BPS","inputs":[],"outputs":[{"name":"","type":"uint256","internalType":"uint256"}],"stateMutability":"view"},{"type":"function","name":"LIQUIDATION_THRESHOLD_BPS","inputs":[],"outputs":[{"name":"","type":"uint256","internalType":"uint256"}],"stateMutability":"view"},{"type":"function","name":"LP_FEE_BPS","inputs":[],"outputs":[{"name":"","type":"uint256","internalType":"uint256"}],"stateMutability":"view"},{"type":"function","name":"addLiquidity","inputs":[],"outputs":[],"stateMutability":"payable"},{"type":"function","name":"checkLiquidation","inputs":[{"name":"_positionId","type":"uint256","internalType":"uint256"}],"outputs":[{"name":"isLiquidatable","type":"bool","internalType":"bool"},{"name":"currentPnL","type":"int256","internalType":"int256"}],"stateMutability":"view"},{"type":"function","name":"closePosition","inputs":[{"name":"_positionId","type":"uint256","internalType":"uint256"}],"outputs":[],"stateMutability":"nonpayable"},{"type":"function","name":"getContractBalance","inputs":[],"outputs":[{"name":"","type":"uint256","internalType":"uint256"}],"stateMutability":"view"},{"type":"function","name":"getLpBalance","inputs":[{"name":"_lp","type":"address","internalType":"address"}],"outputs":[{"name":"","type":"uint256","internalType":"uint256"}],"stateMutability":"view"},{"type":"function","name":"getPosition","inputs":[{"name":"_positionId","type":"uint256","internalType":"uint256"}],"outputs":[{"name":"","type":"tuple","internalType":"struct MonstarPerps.Position","components":[{"name":"id","type":"uint256","internalType":"uint256"},{"name":"trader","type":"address","internalType":"address"},{"name":"influencerId","type":"string","internalType":"string"},{"name":"isLong","type":"bool","internalType":"bool"},{"name":"entryPrice","type":"uint256","internalType":"uint256"},{"name":"collateral","type":"uint256","internalType":"uint256"},{"name":"isOpen","type":"bool","internalType":"bool"},{"name":"timestamp","type":"uint256","internalType":"uint256"},{"name":"lastFundingTime","type":"uint256","internalType":"uint256"}]}],"stateMutability":"view"},{"type":"function","name":"indexOracle","inputs":[],"outputs":[{"name":"","type":"address","internalType":"contract IXIndexOracle"}],"stateMutability":"view"},{"type":"function","name":"influencerAddresses","inputs":[{"name":"","type":"string","internalType":"string"}],"outputs":[{"name":"","type":"address","internalType":"address"}],"stateMutability":"view"},{"type":"function","name":"liquidatePosition","inputs":[{"name":"_positionId","type":"uint256","internalType":"uint256"}],"outputs":[],"stateMutability":"nonpayable"},{"type":"function","name":"lpBalances","inputs":[{"name":"","type":"address","internalType":"address"}],"outputs":[{"name":"","type":"uint256","internalType":"uint256"}],"stateMutability":"view"},{"type":"function","name":"nextPositionId","inputs":[],"outputs":[{"name":"","type":"uint256","internalType":"uint256"}],"stateMutability":"view"},{"type":"function","name":"openPosition","inputs":[{"name":"_influencerId","type":"string","internalType":"string"},{"name":"_isLong","type":"bool","internalType":"bool"}],"outputs":[],"stateMutability":"payable"},{"type":"function","name":"owner","inputs":[],"outputs":[{"name":"","type":"address","internalType":"address"}],"stateMutability":"view"},{"type":"function","name":"payFunding","inputs":[{"name":"_positionId","type":"uint256","internalType":"uint256"}],"outputs":[{"name":"","type":"int256","internalType":"int256"}],"stateMutability":"nonpayable"},{"type":"function","name":"positions","inputs":[{"name":"","type":"uint256","internalType":"uint256"}],"outputs":[{"name":"id","type":"uint256","internalType":"uint256"},{"name":"trader","type":"address","internalType":"address"},{"name":"influencerId","type":"string","internalType":"string"},{"name":"isLong","type":"bool","internalType":"bool"},{"name":"entryPrice","type":"uint256","internalType":"uint256"},{"name":"collateral","type":"uint256","internalType":"uint256"},{"name":"isOpen","type":"bool","internalType":"bool"},{"name":"timestamp","type":"uint256","internalType":"uint256"},{"name":"lastFundingTime","type":"uint256","internalType":"uint256"}],"stateMutability":"view"},{"type":"function","name":"removeLiquidity","inputs":[{"name":"_amount","type":"uint256","internalType":"uint256"}],"outputs":[],"stateMutability":"nonpayable"},{"type":"function","name":"setInfluencerAddress","inputs":[{"name":"_influencerId","type":"string","internalType":"string"},{"name":"_influencerAddress","type":"address","internalType":"address"}],"outputs":[],"stateMutability":"nonpayable"},{"type":"function","name":"totalLiquidity","inputs":[],"outputs":[{"name":"","type":"uint256","internalType":"uint256"}],"stateMutability":"view"},{"type":"function","name":"transfer","inputs":[{"name":"_to","type":"address","internalType":"address payable"},{"name":"_amount","type":"uint256","internalType":"uint256"}],"outputs":[],"stateMutability":"nonpayable"},{"type":"function","name":"transferOwnership","inputs":[{"name":"_newOwner","type":"address","internalType":"address"}],"outputs":[],"stateMutability":"nonpayable"},{"type":"function","name":"withdraw","inputs":[{"name":"_to","type":"address","internalType":"address payable"},{"name":"_amount","type":"uint256","internalType":"uint256"}],"outputs":[],"stateMutability":"nonpayable"},{"type":"event","name":"FundingPaid","inputs":[{"name":"positionId","type":"uint256","indexed":true,"internalType":"uint256"},{"name":"trader","type":"address","indexed":true,"internalType":"address"},{"name":"fundingAmount","type":"int256","indexed":false,"internalType":"int256"}],"anonymous":false},{"type":"event","name":"FundsTransferred","inputs":[{"name":"from","type":"address","indexed":true,"internalType":"address"},{"name":"to","type":"address","indexed":true,"internalType":"address"},{"name":"amount","type":"uint256","indexed":false,"internalType":"uint256"}],"anonymous":false},{"type":"event","name":"FundsWithdrawn","inputs":[{"name":"to","type":"address","indexed":true,"internalType":"address"},{"name":"amount","type":"uint256","indexed":false,"internalType":"uint256"}],"anonymous":false},{"type":"event","name":"InfluencerAddressSet","inputs":[{"name":"influencerId","type":"string","indexed":true,"internalType":"string"},{"name":"influencerAddress","type":"address","indexed":true,"internalType":"address"}],"anonymous":false},{"type":"event","name":"LiquidityAdded","inputs":[{"name":"lp","type":"address","indexed":true,"internalType":"address"},{"name":"amount","type":"uint256","indexed":false,"internalType":"uint256"}],"anonymous":false},{"type":"event","name":"LiquidityRemoved","inputs":[{"name":"lp","type":"address","indexed":true,"internalType":"address"},{"name":"amount","type":"uint256","indexed":false,"internalType":"uint256"}],"anonymous":false},{"type":"event","name":"OwnershipTransferred","inputs":[{"name":"previousOwner","type":"address","indexed":true,"internalType":"address"},{"name":"newOwner","type":"address","indexed":true,"internalType":"address"}],"anonymous":false},{"type":"event","name":"PositionClosed","inputs":[{"name":"positionId","type":"uint256","indexed":true,"internalType":"uint256"},{"name":"trader","type":"address","indexed":true,"internalType":"address"},{"name":"pnl","type":"uint256","indexed":false,"internalType":"uint256"},{"name":"finalAmount","type":"uint256","indexed":false,"internalType":"uint256"}],"anonymous":false},{"type":"event","name":"PositionLiquidated","inputs":[{"name":"positionId","type":"uint256","indexed":true,"internalType":"uint256"},{"name":"trader","type":"address","indexed":true,"internalType":"address"},{"name":"loss","type":"uint256","indexed":false,"internalType":"uint256"},{"name":"remainingCollateral","type":"uint256","indexed":false,"internalType":"uint256"}],"anonymous":false},{"type":"event","name":"PositionOpened","inputs":[{"name":"positionId","type":"uint256","indexed":true,"internalType":"uint256"},{"name":"trader","type":"address","indexed":true,"internalType":"address"},{"name":"influencerId","type":"string","indexed":false,"internalType":"string"},{"name":"isLong","type":"bool","indexed":false,"internalType":"bool"},{"name":"entryPrice","type":"uint256","indexed":false,"internalType":"uint256"},{"name":"collateral","type":"uint256","indexed":false,"internalType":"uint256"}],"anonymous":false}],"bytecode":{"object":"0x60a060405234801562000010575f80fd5b506040516200290038038062002900833981016040819052620000339162000182565b6001600160a01b038216620000a35760405162461bcd60e51b815260206004820152602b60248201527f4d6f6e7374617250657270733a206f7261636c6520616464726573732063616e60448201526a6e6f74206265207a65726f60a81b60648201526084015b60405180910390fd5b6001600160a01b0381166200010e5760405162461bcd60e51b815260206004820152602a60248201527f4d6f6e7374617250657270733a206f776e657220616464726573732063616e6e6044820152696f74206265207a65726f60b01b60648201526084016200009a565b6001600160a01b038281166080525f80546001600160a01b031916918316918217815560016004556040517f8be0079c531659141344cd1fd0a4f28419497f9722a3daafe3b4186f6b6457e0908290a35050620001b8565b80516001600160a01b03811681146200017d575f80fd5b919050565b5f806040838503121562000194575f80fd5b6200019f8362000166565b9150620001af6020840162000166565b90509250929050565b608051612713620001ed5f395f81816102a3015281816106e801528181610be6015281816112f30152611bd501526127135ff3fe608060405260043610610198575f3560e01c80639c8f9f23116100e7578063e1f1c4a711610087578063eb02c30111610062578063eb02c3011461049d578063f2fde38b146104c9578063f3fef3a3146104e8578063f9d419b414610507575f80fd5b8063e1f1c4a714610461578063e8078d9414610476578063ea5ea4701461047e575f80fd5b8063a9059cbb116100c2578063a9059cbb146103b9578063aa381fc6146103d8578063b86f6aef1461040c578063cdddd4e514610442575f80fd5b80639c8f9f2314610367578063a126d60114610386578063a5258210146103a5575f80fd5b80632e5e0b18116101525780636f9fb98a1161012d5780636f9fb98a146102ee578063899346c7146103005780638da5cb5b1461031557806399fbab8814610333575f80fd5b80632e5e0b18146102925780633b61b2e4146102c557806355efb287146102d9575f80fd5b806301cc7ee5146101ab5780630b65092d146101d25780630c6d5a58146101fd5780631380f0a61461021257806315770f921461026a5780632819cc551461027f575f80fd5b366101a7576101a5610526565b005b5f80fd5b3480156101b6575f80fd5b506101bf601481565b6040519081526020015b60405180910390f35b3480156101dd575f80fd5b506101bf6101ec366004611e15565b60026020525f908152604090205481565b348015610208575f80fd5b506101bf611f4081565b34801561021d575f80fd5b5061025261022c366004611ed4565b80516020818301810180516005825292820191909301209152546001600160a01b031681565b6040516001600160a01b0390911681526020016101c9565b348015610275575f80fd5b506101bf60015481565b6101a561028d366004611f06565b6105c0565b34801561029d575f80fd5b506102527f000000000000000000000000000000000000000000000000000000000000000081565b3480156102d0575f80fd5b506101bf600181565b3480156102e4575f80fd5b506101bf610e1081565b3480156102f9575f80fd5b50476101bf565b34801561030b575f80fd5b506101bf60045481565b348015610320575f80fd5b505f54610252906001600160a01b031681565b34801561033e575f80fd5b5061035261034d366004611f59565b6108e2565b6040516101c999989796959493929190611fbd565b348015610372575f80fd5b506101a5610381366004611f59565b6109bf565b348015610391575f80fd5b506101a56103a0366004611f59565b610b40565b3480156103b0575f80fd5b506101bf600a81565b3480156103c4575f80fd5b506101a56103d336600461201c565b611025565b3480156103e3575f80fd5b506101bf6103f2366004611e15565b6001600160a01b03165f9081526002602052604090205490565b348015610417575f80fd5b5061042b610426366004611f59565b6111ad565b6040805192151583526020830191909152016101c9565b34801561044d575f80fd5b506101a561045c366004611f59565b6113d2565b34801561046c575f80fd5b506101bf61271081565b6101a5610526565b348015610489575f80fd5b506101bf610498366004611f59565b611449565b3480156104a8575f80fd5b506104bc6104b7366004611f59565b6116b1565b6040516101c99190612046565b3480156104d4575f80fd5b506101a56104e3366004611e15565b61181c565b3480156104f3575f80fd5b506101a561050236600461201c565b611908565b348015610512575f80fd5b506101a56105213660046120e7565b611a93565b5f341161054e5760405162461bcd60e51b81526004016105459061212b565b60405180910390fd5b335f908152600260205260408120805434929061056c90849061218a565b925050819055503460015f828254610584919061218a565b909155505060405134815233907fc17cea59c2955cb181b03393209566960365771dbba9dc3d510180e7cb3120889060200160405180910390a2565b5f34116106275760405162461bcd60e51b815260206004820152602f60248201527f4d6f6e7374617250657270733a20636f6c6c61746572616c206d75737420626560448201526e02067726561746572207468616e203608c1b6064820152608401610545565b5f600583604051610638919061219d565b908152604051908190036020019020546001600160a01b031690508015806106695750336001600160a01b03821614155b6106cf5760405162461bcd60e51b815260206004820152603160248201527f4d6f6e7374617250657270733a20696e666c75656e6365722063616e6e6f7420604482015270626574206f6e207468656d73656c76657360781b6064820152608401610545565b60405163524f388960e01b81525f906001600160a01b037f0000000000000000000000000000000000000000000000000000000000000000169063524f38899061071d9087906004016121b8565b602060405180830381865afa158015610738573d5f803e3d5ffd5b505050506040513d601f19601f8201168201806040525081019061075c91906121ca565b90505f811161077d5760405162461bcd60e51b8152600401610545906121e1565b60408051610120810182526004548082523360208084019182528385018981528815156060860152608085018790523460a0860152600160c086018190524260e087018190526101008701525f94855260039092529490922083518155905191810180546001600160a01b0319166001600160a01b0390931692909217909155915190918291600282019061081290826122a8565b50606082015160038201805491151560ff199283161790556080830151600483015560a0830151600583015560c08301516006830180549115159190921617905560e0820151600782015561010090910151600890910155600180543491905f9061087e90849061218a565b90915550506004546040513391907f1330d4f84d7828c0308646cf4c33071df5d75ae354a6bd29cb9c52fdffa7c14b906108bf908990899088903490612364565b60405180910390a360048054905f6108d683612392565b91905055505050505050565b60036020525f908152604090208054600182015460028301805492936001600160a01b039092169261091390612222565b80601f016020809104026020016040519081016040528092919081815260200182805461093f90612222565b801561098a5780601f106109615761010080835404028352916020019161098a565b820191905f5260205f20905b81548152906001019060200180831161096d57829003601f168201915b5050505060038301546004840154600585015460068601546007870154600890970154959660ff948516969395509193169189565b5f81116109de5760405162461bcd60e51b81526004016105459061212b565b335f90815260026020526040902054811115610a475760405162461bcd60e51b815260206004820152602260248201527f4d6f6e7374617250657270733a20696e73756666696369656e742062616c616e604482015261636560f01b6064820152608401610545565b80471015610a675760405162461bcd60e51b8152600401610545906123aa565b335f9081526002602052604081208054839290610a859084906123f5565b925050819055508060015f828254610a9d91906123f5565b90915550506040515f90339083908381818185875af1925050503d805f8114610ae1576040519150601f19603f3d011682016040523d82523d5f602084013e610ae6565b606091505b5050905080610b075760405162461bcd60e51b815260040161054590612408565b60405182815233907fc2c3f06e49b9f15e7b4af9055e183b0d73362e033ad82a07dec9bf98401717199060200160405180910390a25050565b5f818152600360205260409020600681015460ff16610b715760405162461bcd60e51b81526004016105459061243f565b60018101546001600160a01b03163314610bcd5760405162461bcd60e51b815260206004820152601f60248201527f4d6f6e7374617250657270733a206e6f7420796f757220706f736974696f6e006044820152606401610545565b60405163524f388960e01b81525f906001600160a01b037f0000000000000000000000000000000000000000000000000000000000000000169063524f388990610c1e906002860190600401612484565b602060405180830381865afa158015610c39573d5f803e3d5ffd5b505050506040513d601f19601f82011682018060405250810190610c5d91906121ca565b90505f8111610c7e5760405162461bcd60e51b8152600401610545906121e1565b60408051610120810182528354815260018401546001600160a01b031660208201526002840180545f93610d899392879291840191610cbc90612222565b80601f0160208091040260200160405190810160405280929190818152602001828054610ce890612222565b8015610d335780601f10610d0a57610100808354040283529160200191610d33565b820191905f5260205f20905b815481529060010190602001808311610d1657829003601f168201915b5050509183525050600382015460ff90811615156020830152600483015460408301526005830154606083015260068301541615156080820152600782015460a082015260089091015460c09091015283611b3a565b90505f612710600a8560050154610da09190612509565b610daa9190612534565b90505f61271060148660050154610dc19190612509565b610dcb9190612534565b90505f610dd8828461218a565b90505f808512610df957848760050154610df2919061218a565b9050610e2d565b5f610e0386612547565b905087600501548110610e18575f9150610e2b565b808860050154610e2891906123f5565b91505b505b5f82821015610e3c575f610e46565b610e4683836123f5565b60068901805460ff191690556040519091505f90600590610e6b9060028c0190612561565b908152604051908190036020019020546001600160a01b031690508015801590610e9457505f85115b15610f0d575f816001600160a01b0316866040515f6040518083038185875af1925050503d805f8114610ee2576040519150601f19603f3d011682016040523d82523d5f602084013e610ee7565b606091505b5050905080610f07578560015f828254610f01919061218a565b90915550505b50610f2a565b8415610f2a578460015f828254610f24919061218a565b90915550505b816001541015610f4c5760405162461bcd60e51b8152600401610545906125d3565b8160015f828254610f5d91906123f5565b90915550508115610fcf576040515f90339084908381818185875af1925050503d805f8114610fa7576040519150601f19603f3d011682016040523d82523d5f602084013e610fac565b606091505b5050905080610fcd5760405162461bcd60e51b815260040161054590612408565b505b338a7f3120c845c5d2c39308641201562a412527c1e7aff294f09c0c936f1c60a1b0675f8a1215611000575f611002565b895b60408051918252602082018790520160405180910390a350505050505050505050565b5f546001600160a01b0316331461104e5760405162461bcd60e51b815260040161054590612617565b6001600160a01b0382166110ba5760405162461bcd60e51b815260206004820152602d60248201527f4d6f6e7374617250657270733a2063616e6e6f74207472616e7366657220746f60448201526c207a65726f206164647265737360981b6064820152608401610545565b5f81116110d95760405162461bcd60e51b81526004016105459061212b565b804710156110f95760405162461bcd60e51b8152600401610545906123aa565b5f826001600160a01b0316826040515f6040518083038185875af1925050503d805f8114611142576040519150601f19603f3d011682016040523d82523d5f602084013e611147565b606091505b50509050806111685760405162461bcd60e51b815260040161054590612408565b6040518281526001600160a01b0384169030907f78e6250172d8e0a57d8d41f480f13581571a2d27bb2a93f5f7bd2511f5c22a6c9060200160405180910390a3505050565b5f8181526003602090815260408083208151610120810183528154815260018201546001600160a01b03169381019390935260028101805485948594909392908401916111f990612222565b80601f016020809104026020016040519081016040528092919081815260200182805461122590612222565b80156112705780601f1061124757610100808354040283529160200191611270565b820191905f5260205f20905b81548152906001019060200180831161125357829003601f168201915b5050509183525050600382015460ff90811615156020830152600483015460408301526005830154606083015260068301541615156080820152600782015460a082015260089091015460c0918201528101519091506112d557505f93849350915050565b604080820151905163524f388960e01b81525f916001600160a01b037f0000000000000000000000000000000000000000000000000000000000000000169163524f388991611326916004016121b8565b602060405180830381865afa158015611341573d5f803e3d5ffd5b505050506040513d601f19601f8201168201806040525081019061136591906121ca565b9050805f0361137a57505f9485945092505050565b6113848282611b3a565b92505f8312156113c7575f61139884612547565b90505f8360a00151612710836113ae9190612509565b6113b89190612534565b611f40111595506113cb915050565b5f93505b5050915091565b5f6113dc826111ad565b5090508061143c5760405162461bcd60e51b815260206004820152602760248201527f4d6f6e7374617250657270733a20706f736974696f6e206e6f74206c6971756960448201526664617461626c6560c81b6064820152608401610545565b61144582611b8b565b5050565b5f818152600360205260408120600681015460ff166114aa5760405162461bcd60e51b815260206004820152601f60248201527f4d6f6e7374617250657270733a20706f736974696f6e206e6f74206f70656e006044820152606401610545565b5f8160080154426114bb91906123f5565b9050610e108110156114d057505f9392505050565b5f6114dd610e1083612534565b60038401549091505f9060ff16156115285761271082600186600501546115049190612509565b61150e9190612509565b6115189190612534565b61152190612547565b9050611554565b612710826001866005015461153d9190612509565b6115479190612509565b6115519190612534565b90505b5f8112156115bd575f61156682612547565b9050846005015481106115865761157c87611b8b565b5095945050505050565b80856005015f82825461159991906123f5565b925050819055508060015f8282546115b1919061218a565b9091555061165c915050565b600154819081111561162a5760405162461bcd60e51b815260206004820152603060248201527f4d6f6e7374617250657270733a20696e73756666696369656e74206c6971756960448201526f6469747920666f722066756e64696e6760801b6064820152608401610545565b80856005015f82825461163d919061218a565b925050819055508060015f82825461165591906123f5565b9091555050505b42600885015560018401546040518281526001600160a01b039091169087907f6f31190c610eb1c35ee71bfeb7d0838b9c06b1d2e9d195609b675b0c075ea24d9060200160405180910390a395945050505050565b6117056040518061012001604052805f81526020015f6001600160a01b03168152602001606081526020015f151581526020015f81526020015f81526020015f151581526020015f81526020015f81525090565b5f828152600360209081526040918290208251610120810184528154815260018201546001600160a01b031692810192909252600281018054929391929184019161174f90612222565b80601f016020809104026020016040519081016040528092919081815260200182805461177b90612222565b80156117c65780601f1061179d576101008083540402835291602001916117c6565b820191905f5260205f20905b8154815290600101906020018083116117a957829003601f168201915b5050509183525050600382015460ff90811615156020830152600483015460408301526005830154606083015260068301541615156080820152600782015460a082015260089091015460c09091015292915050565b5f546001600160a01b031633146118455760405162461bcd60e51b815260040161054590612617565b6001600160a01b0381166118af5760405162461bcd60e51b815260206004820152602b60248201527f4d6f6e7374617250657270733a206e6577206f776e657220697320746865207a60448201526a65726f206164647265737360a81b6064820152608401610545565b5f80546040516001600160a01b03808516939216917f8be0079c531659141344cd1fd0a4f28419497f9722a3daafe3b4186f6b6457e091a35f80546001600160a01b0319166001600160a01b0392909216919091179055565b5f546001600160a01b031633146119315760405162461bcd60e51b815260040161054590612617565b6001600160a01b03821661199d5760405162461bcd60e51b815260206004820152602d60248201527f4d6f6e7374617250657270733a2063616e6e6f7420776974686472617720746f60448201526c207a65726f206164647265737360981b6064820152608401610545565b5f81116119bc5760405162461bcd60e51b81526004016105459061212b565b804710156119dc5760405162461bcd60e51b8152600401610545906123aa565b5f826001600160a01b0316826040515f6040518083038185875af1925050503d805f8114611a25576040519150601f19603f3d011682016040523d82523d5f602084013e611a2a565b606091505b5050905080611a4b5760405162461bcd60e51b815260040161054590612408565b826001600160a01b03167feaff4b37086828766ad3268786972c0cd24259d4c87a80f9d3963a3c3d999b0d83604051611a8691815260200190565b60405180910390a2505050565b5f546001600160a01b03163314611abc5760405162461bcd60e51b815260040161054590612617565b80600583604051611acd919061219d565b90815260405190819003602001812080546001600160a01b039384166001600160a01b031990911617905590821690611b0790849061219d565b604051908190038120907f372400b7497551bec752379a26adb3967eef70d3781175b27b93cea83c45a8fc905f90a35050565b5f80836080015183611b4c919061265c565b90508360600151611b6357611b6081612547565b90505b608084015160a0850151611b779083612682565b611b8191906126b1565b9150505b92915050565b5f818152600360205260409020600681015460ff16611bbc5760405162461bcd60e51b81526004016105459061243f565b60405163524f388960e01b81525f906001600160a01b037f0000000000000000000000000000000000000000000000000000000000000000169063524f388990611c0d906002860190600401612484565b602060405180830381865afa158015611c28573d5f803e3d5ffd5b505050506040513d601f19601f82011682018060405250810190611c4c91906121ca565b90505f8111611c6d5760405162461bcd60e51b8152600401610545906121e1565b60408051610120810182528354815260018401546001600160a01b031660208201526002840180545f93611cab9392879291840191610cbc90612222565b90505f808212611cbb575f611cc4565b611cc482612547565b90505f8460050154821015611ce857818560050154611ce391906123f5565b611cea565b5f5b60068601805460ff1916905590508015611daa57806001541015611d205760405162461bcd60e51b8152600401610545906125d3565b8060015f828254611d3191906123f5565b909155505060018501546040515f916001600160a01b03169083908381818185875af1925050503d805f8114611d82576040519150601f19603f3d011682016040523d82523d5f602084013e611d87565b606091505b5050905080611da85760405162461bcd60e51b815260040161054590612408565b505b600185015460408051848152602081018490526001600160a01b039092169188917f6f7734c2b603545392ede46279193d0b944bffb5d4c822bb78cd37eb6c2aadc9910160405180910390a3505050505050565b6001600160a01b0381168114611e12575f80fd5b50565b5f60208284031215611e25575f80fd5b8135611e3081611dfe565b9392505050565b634e487b7160e01b5f52604160045260245ffd5b5f82601f830112611e5a575f80fd5b813567ffffffffffffffff80821115611e7557611e75611e37565b604051601f8301601f19908116603f01168101908282118183101715611e9d57611e9d611e37565b81604052838152866020858801011115611eb5575f80fd5b836020870160208301375f602085830101528094505050505092915050565b5f60208284031215611ee4575f80fd5b813567ffffffffffffffff811115611efa575f80fd5b611b8184828501611e4b565b5f8060408385031215611f17575f80fd5b823567ffffffffffffffff811115611f2d575f80fd5b611f3985828601611e4b565b92505060208301358015158114611f4e575f80fd5b809150509250929050565b5f60208284031215611f69575f80fd5b5035919050565b5f5b83811015611f8a578181015183820152602001611f72565b50505f910152565b5f8151808452611fa9816020860160208601611f70565b601f01601f19169290920160200192915050565b8981526001600160a01b0389166020820152610120604082018190525f90611fe78382018b611f92565b98151560608401525050608081019590955260a085019390935290151560c084015260e0830152610100909101529392505050565b5f806040838503121561202d575f80fd5b823561203881611dfe565b946020939093013593505050565b60208152815160208201525f602083015161206c60408401826001600160a01b03169052565b506040830151610120806060850152612089610140850183611f92565b9150606085015161209e608086018215159052565b50608085015160a085015260a085015160c085015260c08501516120c660e086018215159052565b5060e085015161010085810191909152909401519390920192909252919050565b5f80604083850312156120f8575f80fd5b823567ffffffffffffffff81111561210e575f80fd5b61211a85828601611e4b565b9250506020830135611f4e81611dfe565b6020808252602b908201527f4d6f6e7374617250657270733a20616d6f756e74206d7573742062652067726560408201526a061746572207468616e20360ac1b606082015260800190565b634e487b7160e01b5f52601160045260245ffd5b80820180821115611b8557611b85612176565b5f82516121ae818460208701611f70565b9190910192915050565b602081525f611e306020830184611f92565b5f602082840312156121da575f80fd5b5051919050565b60208082526021908201527f4d6f6e7374617250657270733a207072696365206e6f7420617661696c61626c6040820152606560f81b606082015260800190565b600181811c9082168061223657607f821691505b60208210810361225457634e487b7160e01b5f52602260045260245ffd5b50919050565b601f8211156122a3575f81815260208120601f850160051c810160208610156122805750805b601f850160051c820191505b8181101561229f5782815560010161228c565b5050505b505050565b815167ffffffffffffffff8111156122c2576122c2611e37565b6122d6816122d08454612222565b8461225a565b602080601f831160018114612309575f84156122f25750858301515b5f19600386901b1c1916600185901b17855561229f565b5f85815260208120601f198616915b8281101561233757888601518255948401946001909101908401612318565b508582101561235457878501515f19600388901b60f8161c191681555b5050505050600190811b01905550565b608081525f6123766080830187611f92565b9415156020830152506040810192909252606090910152919050565b5f600182016123a3576123a3612176565b5060010190565b6020808252602b908201527f4d6f6e7374617250657270733a20696e73756666696369656e7420636f6e747260408201526a6163742062616c616e636560a81b606082015260800190565b81810381811115611b8557611b85612176565b6020808252601d908201527f4d6f6e7374617250657270733a207472616e73666572206661696c6564000000604082015260600190565b60208082526025908201527f4d6f6e7374617250657270733a20706f736974696f6e20616c726561647920636040820152641b1bdcd95960da1b606082015260800190565b5f60208083525f845461249681612222565b8084870152604060018084165f81146124b657600181146124d0576124fb565b60ff1985168984015283151560051b8901830195506124fb565b895f52865f205f5b858110156124f35781548b82018601529083019088016124d8565b8a0184019650505b509398975050505050505050565b8082028115828204841417611b8557611b85612176565b634e487b7160e01b5f52601260045260245ffd5b5f8261254257612542612520565b500490565b5f600160ff1b820161255b5761255b612176565b505f0390565b5f80835461256e81612222565b60018281168015612586576001811461259b576125c7565b60ff19841687528215158302870194506125c7565b875f526020805f205f5b858110156125be5781548a8201529084019082016125a5565b50505082870194505b50929695505050505050565b60208082526024908201527f4d6f6e7374617250657270733a20696e73756666696369656e74206c697175696040820152636469747960e01b606082015260800190565b60208082526025908201527f4d6f6e7374617250657270733a2063616c6c6572206973206e6f74207468652060408201526437bbb732b960d91b606082015260800190565b8181035f83128015838313168383128216171561267b5761267b612176565b5092915050565b8082025f8212600160ff1b8414161561269d5761269d612176565b8181058314821517611b8557611b85612176565b5f826126bf576126bf612520565b600160ff1b82145f19841416156126d8576126d8612176565b50059056fea26469706673582212200a643a3663017f50bbb4000ef2bf5b4942d29635b1bbdef45714e04a2da6e29964736f6c63430008140033","linkReferences":{}},"methodIdentifiers":{"BASIS_POINTS()":"e1f1c4a7","FUNDING_INTERVAL()":"55efb287","FUNDING_RATE_BPS()":"3b61b2e4","INFLUENCER_FEE_BPS()":"01cc7ee5","LIQUIDATION_THRESHOLD_BPS()":"0c6d5a58","LP_FEE_BPS()":"a5258210","addLiquidity()":"e8078d94","checkLiquidation(uint256)":"b86f6aef","closePosition(uint256)":"a126d601","getContractBalance()":"6f9fb98a","getLpBalance(address)":"aa381fc6","getPosition(uint256)":"eb02c301","indexOracle()":"2e5e0b18","influencerAddresses(string)":"1380f0a6","liquidatePosition(uint256)":"cdddd4e5","lpBalances(address)":"0b65092d","nextPositionId()":"899346c7","openPosition(string,bool)":"2819cc55","owner()":"8da5cb5b","payFunding(uint256)":"ea5ea470","positions(uint256)":"99fbab88","removeLiquidity(uint256)":"9c8f9f23","setInfluencerAddress(string,address)":"f9d419b4","totalLiquidity()":"15770f92","transfer(address,uint256)":"a9059cbb","transferOwnership(address)":"f2fde38b","withdraw(address,uint256)":"f3fef3a3"},"id":16}